{"contracts/meudizimo.sol":{"MeuDizimo":{"abi":[{"inputs":[],"stateMutability":"nonpayable","type":"constructor"},{"anonymous":false,"inputs":[{"indexed":true,"internalType":"address","name":"doador","type":"address"},{"indexed":true,"internalType":"address","name":"igreja","type":"address"},{"indexed":false,"internalType":"uint256","name":"valor","type":"uint256"},{"indexed":false,"internalType":"uint256","name":"timestamp","type":"uint256"}],"name":"DizimoEnviado","type":"event"},{"inputs":[],"name":"dono","outputs":[{"internalType":"address","name":"","type":"address"}],"stateMutability":"view","type":"function"},{"inputs":[{"internalType":"address","name":"igreja","type":"address"}],"name":"enviarDizimo","outputs":[],"stateMutability":"payable","type":"function"}],"evm":{"bytecode":{"linkReferences":{},"object":"608060405234801561001057600080fd5b50336000806101000a81548173ffffffffffffffffffffffffffffffffffffffff021916908373ffffffffffffffffffffffffffffffffffffffff160217905550610417806100606000396000f3fe6080604052600436106100295760003560e01c806370514bea1461002e5780638a195bbd14610059575b600080fd5b34801561003a57600080fd5b50610043610075565b604051610050919061023d565b60405180910390f35b610073600480360381019061006e9190610289565b610099565b005b60008054906101000a900473ffffffffffffffffffffffffffffffffffffffff1681565b600034116100dc576040517f08c379a00000000000000000000000000000000000000000000000000000000081526004016100d390610313565b60405180910390fd5b600073ffffffffffffffffffffffffffffffffffffffff168173ffffffffffffffffffffffffffffffffffffffff160361014b576040517f08c379a00000000000000000000000000000000000000000000000000000000081526004016101429061037f565b60405180910390fd5b8073ffffffffffffffffffffffffffffffffffffffff166108fc349081150290604051600060405180830381858888f19350505050158015610191573d6000803e3d6000fd5b508073ffffffffffffffffffffffffffffffffffffffff163373ffffffffffffffffffffffffffffffffffffffff167f18c78a635e21876504952dbb6dbb4a042fdb5ede5edd1115beb0e7ce48b4793434426040516101f19291906103b8565b60405180910390a350565b600073ffffffffffffffffffffffffffffffffffffffff82169050919050565b6000610227826101fc565b9050919050565b6102378161021c565b82525050565b6000602082019050610252600083018461022e565b92915050565b600080fd5b6102668161021c565b811461027157600080fd5b50565b6000813590506102838161025d565b92915050565b60006020828403121561029f5761029e610258565b5b60006102ad84828501610274565b91505092915050565b600082825260208201905092915050565b7f56616c6f72206465766520736572206d61696f7220717565207a65726f000000600082015250565b60006102fd601d836102b6565b9150610308826102c7565b602082019050919050565b6000602082019050818103600083015261032c816102f0565b9050919050565b7f456e64657265636f20646120696772656a6120696e76616c69646f0000000000600082015250565b6000610369601b836102b6565b915061037482610333565b602082019050919050565b600060208201905081810360008301526103988161035c565b9050919050565b6000819050919050565b6103b28161039f565b82525050565b60006040820190506103cd60008301856103a9565b6103da60208301846103a9565b939250505056fea2646970667358221220bf8e5dbf0602c0ebc8d968f30d0d90bd60d88a8c7ff4dbc0a39ad9ab8f9dcf8864736f6c63430008140033","opcodes":"PUSH1 0x80 PUSH1 0x40 MSTORE CALLVALUE DUP1 ISZERO PUSH2 0x10 JUMPI PUSH1 0x0 DUP1 REVERT JUMPDEST POP CALLER PUSH1 0x0 DUP1 PUSH2 0x100 EXP DUP2 SLOAD DUP2 PUSH20 0xFFFFFFFFFFFFFFFFFFFFFFFFFFFFFFFFFFFFFFFF MUL NOT AND SWAP1 DUP4 PUSH20 0xFFFFFFFFFFFFFFFFFFFFFFFFFFFFFFFFFFFFFFFF AND MUL OR SWAP1 SSTORE POP PUSH2 0x417 DUP1 PUSH2 0x60 PUSH1 0x0 CODECOPY PUSH1 0x0 RETURN INVALID PUSH1 0x80 PUSH1 0x40 MSTORE PUSH1 0x4 CALLDATASIZE LT PUSH2 0x29 JUMPI PUSH1 0x0 CALLDATALOAD PUSH1 0xE0 SHR DUP1 PUSH4 0x70514BEA EQ PUSH2 0x2E JUMPI DUP1 PUSH4 0x8A195BBD EQ PUSH2 0x59 JUMPI JUMPDEST PUSH1 0x0 DUP1 REVERT JUMPDEST CALLVALUE DUP1 ISZERO PUSH2 0x3A JUMPI PUSH1 0x0 DUP1 REVERT JUMPDEST POP PUSH2 0x43 PUSH2 0x75 JUMP JUMPDEST PUSH1 0x40 MLOAD PUSH2 0x50 SWAP2 SWAP1 PUSH2 0x23D JUMP JUMPDEST PUSH1 0x40 MLOAD DUP1 SWAP2 SUB SWAP1 RETURN JUMPDEST PUSH2 0x73 PUSH1 0x4 DUP1 CALLDATASIZE SUB DUP2 ADD SWAP1 PUSH2 0x6E SWAP2 SWAP1 PUSH2 0x289 JUMP JUMPDEST PUSH2 0x99 JUMP JUMPDEST STOP JUMPDEST PUSH1 0x0 DUP1 SLOAD SWAP1 PUSH2 0x100 EXP SWAP1 DIV PUSH20 0xFFFFFFFFFFFFFFFFFFFFFFFFFFFFFFFFFFFFFFFF AND DUP2 JUMP JUMPDEST PUSH1 0x0 CALLVALUE GT PUSH2 0xDC JUMPI PUSH1 0x40 MLOAD PUSH32 0x8C379A000000000000000000000000000000000000000000000000000000000 DUP2 MSTORE PUSH1 0x4 ADD PUSH2 0xD3 SWAP1 PUSH2 0x313 JUMP JUMPDEST PUSH1 0x40 MLOAD DUP1 SWAP2 SUB SWAP1 REVERT JUMPDEST PUSH1 0x0 PUSH20 0xFFFFFFFFFFFFFFFFFFFFFFFFFFFFFFFFFFFFFFFF AND DUP2 PUSH20 0xFFFFFFFFFFFFFFFFFFFFFFFFFFFFFFFFFFFFFFFF AND SUB PUSH2 0x14B JUMPI PUSH1 0x40 MLOAD PUSH32 0x8C379A000000000000000000000000000000000000000000000000000000000 DUP2 MSTORE PUSH1 0x4 ADD PUSH2 0x142 SWAP1 PUSH2 0x37F JUMP JUMPDEST PUSH1 0x40 MLOAD DUP1 SWAP2 SUB SWAP1 REVERT JUMPDEST DUP1 PUSH20 0xFFFFFFFFFFFFFFFFFFFFFFFFFFFFFFFFFFFFFFFF AND PUSH2 0x8FC CALLVALUE SWAP1 DUP2 ISZERO MUL SWAP1 PUSH1 0x40 MLOAD PUSH1 0x0 PUSH1 0x40 MLOAD DUP1 DUP4 SUB DUP2 DUP6 DUP9 DUP9 CALL SWAP4 POP POP POP POP ISZERO DUP1 ISZERO PUSH2 0x191 JUMPI RETURNDATASIZE PUSH1 0x0 DUP1 RETURNDATACOPY RETURNDATASIZE PUSH1 0x0 REVERT JUMPDEST POP DUP1 PUSH20 0xFFFFFFFFFFFFFFFFFFFFFFFFFFFFFFFFFFFFFFFF AND CALLER PUSH20 0xFFFFFFFFFFFFFFFFFFFFFFFFFFFFFFFFFFFFFFFF AND PUSH32 0x18C78A635E21876504952DBB6DBB4A042FDB5EDE5EDD1115BEB0E7CE48B47934 CALLVALUE TIMESTAMP PUSH1 0x40 MLOAD PUSH2 0x1F1 SWAP3 SWAP2 SWAP1 PUSH2 0x3B8 JUMP JUMPDEST PUSH1 0x40 MLOAD DUP1 SWAP2 SUB SWAP1 LOG3 POP JUMP JUMPDEST PUSH1 0x0 PUSH20 0xFFFFFFFFFFFFFFFFFFFFFFFFFFFFFFFFFFFFFFFF DUP3 AND SWAP1 POP SWAP2 SWAP1 POP JUMP JUMPDEST PUSH1 0x0 PUSH2 0x227 DUP3 PUSH2 0x1FC JUMP JUMPDEST SWAP1 POP SWAP2 SWAP1 POP JUMP JUMPDEST PUSH2 0x237 DUP2 PUSH2 0x21C JUMP JUMPDEST DUP3 MSTORE POP POP JUMP JUMPDEST PUSH1 0x0 PUSH1 0x20 DUP3 ADD SWAP1 POP PUSH2 0x252 PUSH1 0x0 DUP4 ADD DUP5 PUSH2 0x22E JUMP JUMPDEST SWAP3 SWAP2 POP POP JUMP JUMPDEST PUSH1 0x0 DUP1 REVERT JUMPDEST PUSH2 0x266 DUP2 PUSH2 0x21C JUMP JUMPDEST DUP2 EQ PUSH2 0x271 JUMPI PUSH1 0x0 DUP1 REVERT JUMPDEST POP JUMP JUMPDEST PUSH1 0x0 DUP2 CALLDATALOAD SWAP1 POP PUSH2 0x283 DUP2 PUSH2 0x25D JUMP JUMPDEST SWAP3 SWAP2 POP POP JUMP JUMPDEST PUSH1 0x0 PUSH1 0x20 DUP3 DUP5 SUB SLT ISZERO PUSH2 0x29F JUMPI PUSH2 0x29E PUSH2 0x258 JUMP JUMPDEST JUMPDEST PUSH1 0x0 PUSH2 0x2AD DUP5 DUP3 DUP6 ADD PUSH2 0x274 JUMP JUMPDEST SWAP2 POP POP SWAP3 SWAP2 POP POP JUMP JUMPDEST PUSH1 0x0 DUP3 DUP3 MSTORE PUSH1 0x20 DUP3 ADD SWAP1 POP SWAP3 SWAP2 POP POP JUMP JUMPDEST PUSH32 0x56616C6F72206465766520736572206D61696F7220717565207A65726F000000 PUSH1 0x0 DUP3 ADD MSTORE POP JUMP JUMPDEST PUSH1 0x0 PUSH2 0x2FD PUSH1 0x1D DUP4 PUSH2 0x2B6 JUMP JUMPDEST SWAP2 POP PUSH2 0x308 DUP3 PUSH2 0x2C7 JUMP JUMPDEST PUSH1 0x20 DUP3 ADD SWAP1 POP SWAP2 SWAP1 POP JUMP JUMPDEST PUSH1 0x0 PUSH1 0x20 DUP3 ADD SWAP1 POP DUP2 DUP2 SUB PUSH1 0x0 DUP4 ADD MSTORE PUSH2 0x32C DUP2 PUSH2 0x2F0 JUMP JUMPDEST SWAP1 POP SWAP2 SWAP1 POP JUMP JUMPDEST PUSH32 0x456E64657265636F20646120696772656A6120696E76616C69646F0000000000 PUSH1 0x0 DUP3 ADD MSTORE POP JUMP JUMPDEST PUSH1 0x0 PUSH2 0x369 PUSH1 0x1B DUP4 PUSH2 0x2B6 JUMP JUMPDEST SWAP2 POP PUSH2 0x374 DUP3 PUSH2 0x333 JUMP JUMPDEST PUSH1 0x20 DUP3 ADD SWAP1 POP SWAP2 SWAP1 POP JUMP JUMPDEST PUSH1 0x0 PUSH1 0x20 DUP3 ADD SWAP1 POP DUP2 DUP2 SUB PUSH1 0x0 DUP4 ADD MSTORE PUSH2 0x398 DUP2 PUSH2 0x35C JUMP JUMPDEST SWAP1 POP SWAP2 SWAP1 POP JUMP JUMPDEST PUSH1 0x0 DUP2 SWAP1 POP SWAP2 SWAP1 POP JUMP JUMPDEST PUSH2 0x3B2 DUP2 PUSH2 0x39F JUMP JUMPDEST DUP3 MSTORE POP POP JUMP JUMPDEST PUSH1 0x0 PUSH1 0x40 DUP3 ADD SWAP1 POP PUSH2 0x3CD PUSH1 0x0 DUP4 ADD DUP6 PUSH2 0x3A9 JUMP JUMPDEST PUSH2 0x3DA PUSH1 0x20 DUP4 ADD DUP5 PUSH2 0x3A9 JUMP JUMPDEST SWAP4 SWAP3 POP POP POP JUMP INVALID LOG2 PUSH5 0x6970667358 0x22 SLT KECCAK256 0xBF DUP15 0x5D 0xBF MOD MUL 0xC0 0xEB 0xC8 0xD9 PUSH9 0xF30D0D90BD60D88A8C PUSH32 0xF4DBC0A39AD9AB8F9DCF8864736F6C6343000814003300000000000000000000 "},"methodIdentifiers":{"dono()":"70514bea","enviarDizimo(address)":"8a195bbd"}}}}}