{
  "_format": "hh-sol-artifact-1",
  "contractName": "MeuDizimo",
  "sourceName": "contracts/meudizimo.sol",
  "abi": [
    {
      "inputs": [],
      "stateMutability": "nonpayable",
      "type": "constructor"
    },
    {
      "anonymous": false,
      "inputs": [
        {
          "indexed": true,
          "internalType": "address",
          "name": "doador",
          "type": "address"
        },
        {
          "indexed": true,
          "internalType": "address",
          "name": "igreja",
          "type": "address"
        },
        {
          "indexed": false,
          "internalType": "uint256",
          "name": "valor",
          "type": "uint256"
        },
        {
          "indexed": false,
          "internalType": "uint256",
          "name": "timestamp",
          "type": "uint256"
        }
      ],
      "name": "DizimoEnviado",
      "type": "event"
    },
    {
      "inputs": [],
      "name": "dono",
      "outputs": [
        {
          "internalType": "address",
          "name": "",
          "type": "address"
        }
      ],
      "stateMutability": "view",
      "type": "function"
    },
    {
      "inputs": [
        {
          "internalType": "address",
          "name": "igreja",
          "type": "address"
        }
      ],
      "name": "enviarDizimo",
      "outputs": [],
      "stateMutability": "payable",
      "type": "function"
    }
  ],
  "bytecode": "0x608060405234801561001057600080fd5b50336000806101000a81548173ffffffffffffffffffffffffffffffffffffffff021916908373ffffffffffffffffffffffffffffffffffffffff160217905550610417806100606000396000f3fe6080604052600436106100295760003560e01c806370514bea1461002e5780638a195bbd14610059575b600080fd5b34801561003a57600080fd5b50610043610075565b604051610050919061023d565b60405180910390f35b610073600480360381019061006e9190610289565b610099565b005b60008054906101000a900473ffffffffffffffffffffffffffffffffffffffff1681565b600034116100dc576040517f08c379a00000000000000000000000000000000000000000000000000000000081526004016100d390610313565b60405180910390fd5b600073ffffffffffffffffffffffffffffffffffffffff168173ffffffffffffffffffffffffffffffffffffffff160361014b576040517f08c379a00000000000000000000000000000000000000000000000000000000081526004016101429061037f565b60405180910390fd5b8073ffffffffffffffffffffffffffffffffffffffff166108fc349081150290604051600060405180830381858888f19350505050158015610191573d6000803e3d6000fd5b508073ffffffffffffffffffffffffffffffffffffffff163373ffffffffffffffffffffffffffffffffffffffff167f18c78a635e21876504952dbb6dbb4a042fdb5ede5edd1115beb0e7ce48b4793434426040516101f19291906103b8565b60405180910390a350565b600073ffffffffffffffffffffffffffffffffffffffff82169050919050565b6000610227826101fc565b9050919050565b6102378161021c565b82525050565b6000602082019050610252600083018461022e565b92915050565b600080fd5b6102668161021c565b811461027157600080fd5b50565b6000813590506102838161025d565b92915050565b60006020828403121561029f5761029e610258565b5b60006102ad84828501610274565b91505092915050565b600082825260208201905092915050565b7f56616c6f72206465766520736572206d61696f7220717565207a65726f000000600082015250565b60006102fd601d836102b6565b9150610308826102c7565b602082019050919050565b6000602082019050818103600083015261032c816102f0565b9050919050565b7f456e64657265636f20646120696772656a6120696e76616c69646f0000000000600082015250565b6000610369601b836102b6565b915061037482610333565b602082019050919050565b600060208201905081810360008301526103988161035c565b9050919050565b6000819050919050565b6103b28161039f565b82525050565b60006040820190506103cd60008301856103a9565b6103da60208301846103a9565b939250505056fea264697066735822122040a27c675415472468f585469b30e47c3d2cbc8110ce092ff903ec793520a89e64736f6c63430008180033",
  "linkReferences": {},
  "deployedLinkReferences": {}
}